:020000040800F2
:10000000F0230020390200086F1D0008391C000889
:100010006D1D000893040008413D00080000000029
:10002000000000000000000000000000ED1E0008BD
:10003000FD04000800000000EB1E0008F91E000887
:10004000530200085302000853020008530200083C
:10005000530200085302000853020008530200082C
:10006000530200085302000853020008530200081C
:10007000530200085302000853020008530200080C
:100080005302000853020008530200080000000059
:100090000000000000000000000000005302000803
:1000A00053020008530200085302000853020008DC
:1000B00053020008530200085302000853020008CC
:1000C00053020008530200085302000853020008BC
:1000D0005302000853020008CD2100080000000070
:1000E00053020008530200085302000800000000F9
:1000F00000000000000000000000000053020008A3
:1001000000000000530200085302000853020008D8
:1001100000000000000000000000000000000000DF
:10012000530200085302000853020008530200085B
:100130005302000800000000000000000000000062
:10014000000000000000000000000000711D000819
:10015000530200085302000853020008530200082B
:1001600053020008530200080000000000000000D5
:10017000000000000000000000000000000000007F
:100180000000000053020008000000000000000012
:10019000530200085302000800F002F800F03CF897
:1001A0000AA090E8000C82448344AAF10107DA45D2
:1001B00001D100F031F8AFF2090EBAE80F0013F0E8
:1001C000010F18BFFB1A43F001031847D03B000092
:1001D000F03B0000103A24BF78C878C1FAD8520723
:1001E00024BF30C830C144BF04680C6070470000B1
:1001F0000023002400250026103A28BF78C1FBD830
:10020000520728BF30C148BF0B6070471FB503F0CD
:10021000B3FD1FBD10B510BD00F001F91146FFF789
:10022000F5FF03F09EFD00F01FF903B4FFF7F2FFA6
:1002300003BC00F027F9000009488047094800473F
:10024000FEE7FEE7FEE7FEE7FEE7FEE7FEE7FEE786
:10025000FEE7FEE704480549054A064B70470000E3
:10026000911F000899010008F01D0020F0230020D4
:10027000F01F0020F01F002053EA020C00F06980FC
:100280002DE9F04B4FF00006002B1FBFB3FA83F5AA
:1002900003FA05F424FA05F65E4012BF1643B2FADB
:1002A00082F502FA05F4C5F120051EBF22FA05FC0D
:1002B00044EA0C04203556EA044C4FEA144418BFB3
:1002C000641C4FF000084FF00009904271EB030CE2
:1002D00039D3002919BFB1FA81F701FA07F6B0FA4C
:1002E00080F700FA07F6C7F120071EBF20FA07FCC7
:1002F00046EA0C062037B6FBF4FCA7EB0507103FD7
:1003000007F01F0BCBF120060CFA0BFB2CFA06F6BC
:1003100044BFB3460026202FA4BF5E464FF0000B1B
:100320005BEA060C08BF4FF0010B19EB0B09ABFBA6
:10033000027C48EB0608C01B06FB02CC0BFB03CC7F
:1003400071EB0C01C1E70B46024641464846BDE849
:10035000F08B13B54FF000004FF00001AFF30080B9
:10036000BDE81C40704710B5203AC0F00B80B1E8E2
:100370001850203AA0E81850B1E81850A0E81850DA
:10038000BFF4F5AF5FEA027C24BFB1E81850A0E8E3
:10039000185044BF18C918C0BDE810405FEA827CFD
:1003A00024BF51F8043B40F8043B08BF7047D20714
:1003B00028BF31F8023B48BF11F8012B28BF20F8B5
:1003C000023B48BF00F8012B70474FF0000200B518
:1003D000134694469646203922BFA0E80C50A0E868
:1003E0000C50B1F12001BFF4F7AF090728BFA0E816
:1003F0000C5048BF0CC05DF804EB890028BF40F8E2
:10040000042B08BF704748BF20F8022B11F0804F23
:1004100018BF00F8012B704770477047704775464A
:1004200000F02CF8AE4605006946534620F0070060
:10043000854618B020B5FFF70DFFBDE820404FF00E
:1004400000064FF000074FF000084FF0000B21F0BE
:100450000701AC46ACE8C009ACE8C009ACE8C0098B
:10046000ACE8C0098D46704710B50446AFF3008074
:100470002046BDE81040FFF7D8BE00000048704796
:10048000901D002001491820ABBEFEE726000200A7
:100490007047FEE7002070470020704710B500222B
:1004A0000449054802F078F80449034802F067F867
:1004B000002010BD640E002088010020640600208A
:1004C00010B50B4A094C037811786354491CC9B222
:1004D0001170402901D1002111700146054802F038
:1004E0004EF8044802F024F8002010BD040100205A
:1004F0005E0000208801002000207047704772B61F
:10050000FEE72DE9F0410446876D00F05DF90646EF
:1005100094F835000025022806D08020606584F814
:1005200034500120BDE8F0812068016821F01601F7
:1005300001602068416921F080014161206C08B9A7
:10054000A06C20B12068016821F0080101602068DA
:10055000016821F0010101600CE000F035F9801B19
:10056000052807D920206065032084F8350084F829
:100570003450D7E720680068C007EED194F85C10CB
:100580003F208840B860012084F8350084F834505A
:100590000020C7E790F83510022903D0802141657B
:1005A00001207047052180F835100068016821F0AE
:1005B000010101600020704770B5044600F004F9A5
:1005C0000546601C02D004480078044400F0FCF8A2
:1005D000401BA042FAD370BD000000202DE9F84F67
:1005E000DFF8B8A10022012403254FF00F090AF11A
:1005F000040BAAF1040E00BF0B6804FA02F63340A4
:10060000B34273D10F7907F00307012F01D0022FF6
:1006100016D187684FEA420805FA08FC27EA0C075A
:10062000D1F80CC00CFA08FC4CEA070CC0F808C062
:100630004768B7430E79C6F3001696403E434660BE
:100640000E79F643B6070DD0C768560005FA06FCCA
:1006500027EA0C07D1F808C00CFA06FC4CEA070C94
:10066000C0F80CC00E7906F00306022E10D1D60891
:1006700000EB8608D8F8206057074FEAD76C09FAD4
:100680000CF7BE430F6907FA0CF73743C8F8207020
:1006900006684FEA420C05FA0CF7BE430F7907F0E3
:1006A000030707FA0CF7374307604E6816F4403F1C
:1006B0006DD03B4E376847F480473760366822F08C
:1006C000030706F480460096364E07EB060CDCF86E
:1006D000086897073F0F09FA07F826EA0806DFF8C7
:1006E000C880404503D14FF000081EE04FE0DFF81E
:1006F000BC80404502D14FF0010816E0DFF8B08021
:10070000404502D14FF002080FE0DFF8A8804045D5
:1007100002D14FF0030808E0DFF89C80404502D189
:100720004FF0040801E04FF0070808FA07F848EA1C
:100730000608CCF80888DAF800605746D1F804C0FB
:100740009E435FEACC2C00D51E433E60DBF8006080
:100750005F46D1F804C09E435FEA8C2C00D51E434F
:100760003E60DEF800607746D1F804C09E435FEA41
:100770008C3C00D51E433E60084F083F3E68D1F8D0
:1007800004C09E435FEACC3C00D51E433E60521C31
:10079000102AFFF431AFBDE8F88F0000083C01409B
:1007A0004438024000300140000002400004024092
:1007B00000080240000C0240001002400AB18161B2
:1007C00070470904FBE7000001488068704700009B
:1007D000000000200248816802781144816070475F
:1007E000000000200B4810B5016841F40071016061
:1007F000016841F480610160016841F48071016029
:10080000032000F06FF80F2000F006F800F024F845
:10081000002010BD003C024070B50D4D04464FF461
:100820007A712878B1FBF0F00A490968B1FBF0F061
:1008300001F048F848B9102C07D200222146501E7A
:1008400000F030F800206C6070BD012070BD000029
:10085000000000200C0000200A4808B5016841F49F
:1008600080410160006800F4804000900548001F4E
:10087000016841F080510160006800F080500090F4
:1008800008BD000044380240002809DB00F01F02C8
:10089000012191404009800000F1E020C0F80011E2
:1008A00070470000F0B40E4B1B680C46C3F30223E4
:1008B000C3F10705042D00D90425191D072901D20C
:1008C000002300E0DB1E012606FA05F1491E214047
:1008D00099409E40761E16403143F0BC03F031BA79
:1008E0000CED00E0064900F0070208684FF6FF0330
:1008F000184040EA0220034A104308607047000095
:100900000CED00E00000FA0570470068416200202D
:100910007047F0B50368586A39B19C6A4FF4827623
:1009200000EB144400204D1E0AE040EA02409862A9
:100930000FE006EB8007DF59401C04EB1744C0B200
:10094000A842F6D344EA02404FF4807202EB8101E0
:1009500058500020F0BDD0F8080502F0F3B801EBC4
:10096000C10200EB8202D0F80805D26C02F048B850
:1009700001EBC10200EB8202D0F80805D2F88C220C
:1009800002F099B8D0F8080502F0DEB80A0601F0C6
:100990000F0101EBC10100EB810101D53C3101E008
:1009A00001F51F71006803F013B870B504460B061B
:1009B00001F00F0000EBC00104EB81014FF00102D8
:1009C0004FF0000503D581F83D203C3103E081F86C
:1009D0007D5201F51F71087094F8BC04012808D0FD
:1009E00084F8BC24206802F0ADFC84F8BC540020DC
:1009F00070BD022070BD70B5044601F00F00626842
:100A0000904201D9012070BD0B0601F00F0101EBEE
:100A1000C10104EB81014FF001024FF0000503D545
:100A200081F83D203C3103E081F87D5201F51F71D2
:100A30008D70087094F8BC04012808D084F8BC2498
:100A4000206802F07BFE84F8BC54002070BD0220B8
:100A500070BD01F00F0101EBC10100EB8100D0F886
:100A60009C0270472DE9F04104460F0601F00F008B
:100A700000EBC00104EB81014FF001064FF00005CF
:100A800003D581F83D603C3103E081F87D5201F5EA
:100A90001F710870CA600B714A7802B10881022B7D
:100AA00000D14D7194F8BC04012809D084F8BC64CD
:100AB000206802F09FFB284684F8BC54BDE8F08112
:100AC0000220FBE770B50C4601F00F0505EBC501F0
:100AD00000EB8101C1F89432C1F88C220023C1F8E7
:100AE0009C3281F87D3281F87C52036901F51F71D7
:100AF000012B00D14A612207027C006803D002F07A
:100B000075FE002070BD02F05FFDFAE770B5044687
:100B10000D4601F00F006168884201D9012070BDC7
:100B200029064FF000064FF0010207D500EBC00187
:100B300004EB810181F83D203C3107E005EBC50164
:100B400004EB810181F87D6201F51F718A700870E4
:100B500094F8BC04012807D084F8BC24206802F073
:100B600019FE280702D007E0022070BD217C04F2A4
:100B7000C442206802F0B6FD84F8BC64002070BD59
:100B800070B50C4601F00F0505EBC50100EB8101C6
:100B90004B65CA640023CB65012381F83D3001F821
:100BA0003C5F0369012B00D14A612207027C006887
:100BB00003D002F01BFE002070BD02F005FDFAE735
:100BC0002DE9FC5F05680446284602F0A2FF0028D4
:100BD0007DD1206802F0C9FF002878D0D5F8080838
:100BE000C0F30D20C4F8FC04206802F0BEFF8007AB
:100BF00004D52068416901F002014161206802F0DA
:100C0000B4FFC10604F2C440009034D52068816965
:100C100021F0100181612F6A07F00F0000EBC00086
:100C200004EB8006C7F3434006F51F76022802D086
:100C3000062811D01AE047F6F070074216D0C7F325
:100C40000A1217462846316902F093FF306938448A
:100C50003061306A384408E008222846009902F0E2
:100C600088FF306AC7F30A1108443062206881693E
:100C700041F010018161206802F077FF00034FF01E
:100C8000080B4FF0000A4FF001097CD500262068C0
:100C900002F04AFF074674E0F80770D0F1B220680E
:100CA00002F05BFF8046C00707D005EB4611C1F894
:100CB000089B3146204601F061F85FEA087024D5B0
:100CC00005EB4611C1F808BB2068016C00E025E285
:100CD00000EB46100191D0F8082BFC4B994205D946
:100CE000110403D54FF40041C0F8081B204600F062
:100CF00002FBF6490198884207D92069012804D1EE
:100D000020680121009A02F0EDFC5FEAC86004D57A
:100D100005EB46111020C1F8080B5FEA88701DD55D
:100D20006869000605D5D5F8040840F48061C5F867
:100D3000041806EBC60004EB800090F87F1200F563
:100D40001F70012905D180F803A0F1B2204600F000
:100D5000EBF905EB46110220C1F8080B5FEA886049
:100D600004D505EB46102021C0F8081B5FEA884037
:100D700005D505EB46104FF40051C0F8081B7F085D
:100D8000761C002F88D1206802F0EFFE40036FD55B
:100D9000206802F0C2FE0746002667E0F80763D02D
:100DA000F1B2206802F0C7FE8046C00723D006F0EB
:100DB0000F0209FA02F0D5F834288243C5F8342826
:100DC00005EB4610C0F80899206901280FD106EB01
:100DD000C60004EB8000D0E912211144C16436B989
:100DE000606D20B920680121009A02F07BFCF1B20D
:100DF0002046FFF7B4FD5FEA087003D505EB461106
:100E0000C1F808B95FEAC86004D505EB46111020A7
:100E1000C1F808095FEA486004D505EB4610402197
:100E2000C0F808195FEA887017D53146284602F0E5
:100E300043FE06EBC60004EB800090F83F103C3008
:100E4000012905D180F803A0F1B2204600F068F92D
:100E500005EB46110220C1F808095FEA086003D5D6
:100E60003146204600F0F0FF7F08761C002F95D118
:100E7000206802F07AFE002811DAD5F8040820F084
:100E80000101C5F8041894F8F40401282BD0204679
:100E900000F015FA2068416901F0004141612068C5
:100EA00002F063FE00050BD5D5F80808C00702D094
:100EB000204600F049FA2068416901F4006141616F
:100EC000206802F052FEC00466D5D5F8040820F070
:100ED0000100C5F804081021206802F0EDFD002192
:100EE0004FF67F321FE084F8F4A400212046FFF77C
:100EF0000BFDCFE705EB4110C0F80829D0F8003909
:100F000023F40013C0F80039C0F8082BD0F8003BD8
:100F100023F40013C0F8003BD0F8003B43F000631B
:100F2000C0F8003B491C60688842E3D8D5F81C082B
:100F300040F00111C5F81C18206B002828460DD080
:100F4000D0F8840840F00B01C5F88418D5F844089F
:100F500040F00B012846C5F844180DE0D0F81408FD
:100F600042F22B010843C5F81408D5F8100840F0E8
:100F70000B012846C5F81018D0F8000820F4FE61CF
:100F8000C5F80018217C2068009A02F0ABFB2068AD
:100F9000416901F480514161206802F0E6FD80045E
:100FA00015D5206802F066F9206802F0A5FDE06022
:100FB00000F07CFA0146227B206802F039FE2046D0
:100FC00000F06AF92068416901F40051416120682C
:100FD00002F0CBFD000707D5204600F074F9206829
:100FE000416901F008014161206802F0BEFD000680
:100FF00016D5A86920F08000A86101260DE000BF89
:1010000006EBC60004EB800090F87F02012803D1B4
:10101000F1B22046FFF7BAFC761C6068B042EFD808
:10102000206802F0A2FDC00221D501264F4616E03D
:1010300005EB4610D0F8001906EBC60004EB800063
:1010400090F84020012A09D1002907DA80F83F7082
:10105000F0B240F080012046FFF798FC761C6068F3
:10106000B042E5D82068416901F4801141612068EF
:1010700002F07BFD800234D501204B4629E000BF01
:1010800005EB4011D1F8001B00EBC00204EB820617
:1010900096F88022012A1BD1002919DA94F8FC2441
:1010A00001F4803102F00102914211D186F87F32C1
:1010B000A96941F08002AA616969090608D4D5F8D6
:1010C000040840F40070C5F8040805E00A30544FE5
:1010D000401C61688142D3D82068416901F4001145
:1010E0004161206802F041FD400007D52046FFF72E
:1010F00032FC2068416901F080414161206802F0C2
:1011000034FD40070AD520684568680702D52046A7
:10111000FFF738FC2068416829434160BDE8FC9F27
:10112000D0F8080501F064BDD0F8080501F074BDE1
:101130002DE9F0418AB0040005D094F8BD0426687A
:10114000002520B108E001200AB0BDE8F08184F854
:10115000BC54204600F05EF8032084F8BD04F06B18
:10116000C00500D42561206802F028FA04F11001BE
:10117000282288466846FFF7F6F894E80F0002F048
:1011800087F80226C8BB0021206802F011FD00206C
:1011900001270EE000EBC00104EB810181F83D70F6
:1011A00001F83C0F08810D71CD600D61401CC0B28B
:1011B0008D6161688142EDD8002011E000EBC00133
:1011C00004EB810181F87D5281F87C0281F8805224
:1011D000C1F88852C1F88C52401CC0B2C1F8945278
:1011E00061688142EAD8282241466846FFF7BBF889
:1011F00094E80F0002F028F910B184F8BD64A2E76A
:1012000084F8385084F8BD74206802F00FF900208B
:101210009AE7000010B586B0044614216846FFF72F
:10122000D4F82068B0F1A04F2FD1194800210268EE
:1012300042F001020260006800F0010005904FF4E6
:10124000C05000900220CDE90101032003900A2044
:10125000049069460F48FFF7C1F90D48001D016869
:1012600041F0800101600A481430016841F4804176
:1012700001600068002200F4804005901146432080
:10128000FFF710FB4320FFF7FFFA06B010BD000088
:10129000303802400000024070B50446C0680125A5
:1012A000022801D0FFF72BF92946D4F8080501F0F0
:1012B00021FDD4F80805BDE8704001F0D6BCD0F897
:1012C000080501F000BDD0F8080501F006BD10B515
:1012D000044690F8BC0401280BD0012084F8BC041B
:1012E00084F83810206802F091FC002084F8BC04D7
:1012F00010BD022010BDD0F8082500F2C4411046F0
:1013000001F004BD10B50446006894F8BC1401292E
:1013100006D0012184F8BC14A16A012902D008E09A
:10132000022010BDA169012903D0816B41F48031F5
:101330008163206802F09BFB206802F069F80020BE
:1013400084F8BC0410BD000010B50446D0F80805B0
:1013500001F01EFD2068D0F8001E41F00101C0F828
:10136000001E206A002804D00248016841F00601EE
:10137000016010BD10ED00E02DE9F0470E460500BC
:1013800065D0DFF81481D8F80000F7B200F007004C
:10139000B04207D288F80070D8F8000000F00700CB
:1013A000B04254D128683D4C810712D5400703D57F
:1013B000206840F4E05020602878000703D52068BA
:1013C00040F4604020602068A96820F0F0000843E5
:1013D00020602878C0072DD0304968680839012876
:1013E00012D0022813D0032811D0096889070029D8
:1013F0002DDA216821F0030101432160FFF7E4F9B0
:10140000814641F2883A0EE009688903EFE70968EE
:101410008901ECE7FFF7D8F9A0EB0901514502D9A2
:101420000320BDE8F0872068696800F00C00B0EB8D
:10143000810FEFD1D8F80010404601F00701B1420A
:1014400007D90770006800F00700B04201D0012002
:10145000E7E72878400705D52068E96820F4E050E0
:10146000084320602878000706D52068296920F401
:10147000604040EAC100206000F03EF82168084A60
:10148000C1F30311515CC840064908600648006872
:10149000FFF7C2F90020C4E7003C024008380240D0
:1014A000823D00080C000020040000200148006874
:1014B000704700000C0000200448054900680968D6
:1014C000044AC1F38221515CC84070470C000020DF
:1014D00008380240923D0008044805490068096840
:1014E000044AC1F34231515CC84070470C000020EF
:1014F00008380240923D0008154810B5006810F009
:101500000C02144813D04110042A0FD0082A0ED11F
:101510000F4C241F2268236802F03F025B0207D5AC
:101520002068C0F38810A0FB010106E0084610BD4A
:101530002168C1F38811A1FB00010023FEF79CFE86
:101540002168C1F30141491C4900B0FBF1F010BD15
:10155000083802400024F4002DE9F84F04006ED052
:101560002078DFF84C93C007A9F104054AD009F1AF
:1015700004000168C1F38101012908D00068C0F3AB
:10158000810002280AD1D9F80000400206D5286857
:10159000800337D560680028E1D033E06068B0F59B
:1015A000803F10D0B0F5A02F286810D020F48030F4
:1015B0002860286820F4802028606068A8B1FFF7C0
:1015C00003F906460DE0286840F48030F4E740F463
:1015D00080202860F7E700BFFFF7F6F8801B64283B
:1015E00073D828688003F7D50CE0FFF7EDF80646BE
:1015F00005E000BFFFF7E8F8801B6428F0D82868F2
:101600008003F7D42078DFF8AC8280074FF0000A1F
:101610003ED5A748001D016811F00C0F08D00068E6
:10162000C0F3810002280BD1D9F80000400207D492
:101630002868800716D5E068012800D112E033E160
:10164000E068B8B10120C8F80000FFF7BDF8064611
:1016500005E000BFFFF7B8F8801B0228C0D8286853
:101660008007F7D52868216920F0F80040EAC1001A
:1016700028600DE0C8F800A0FFF7A6F8064604E0D1
:10168000FFF7A2F8801B02281FD828688007F7D42C
:101690002078000722D5864F87486169703771B17D
:1016A00001210160FFF790F8064604E0FFF78CF88F
:1016B000801B022809D838688007F7D50EE0C0F8EB
:1016C00000A0FFF781F8064605E082E0FFF77CF80E
:1016D000801B02287DD838688007F7D4207840071F
:1016E00068D5DFF8CCB100270BF13C0BDBF800002C
:1016F000C0000BD4DBF8001041F08051CBF8001093
:10170000DBF80000012700F0805000906B4E30683D
:10171000C00510D4306840F480703060FFF754F892
:10172000009005E0FFF750F80099401A022850D8C1
:101730003068C005F6D55E4EA0686C3601280FD023
:101740000528306810D020F001003060306820F0AB
:1017500004003060A068B8B1FFF736F800900FE0E1
:10176000306840F00100F4E740F004003060F7E733
:10177000FFF72AF80099411A41F28830814266D871
:1017800030688007F4D50EE0FFF71EF8009007E000
:10179000FFF71AF80099411A41F28830814256D871
:1017A00030688007F4D42FB1DBF8001021F08051AD
:1017B000CBF80010A069C8B33D49091D0968C1F301
:1017C000810102294AD00228504607D0C8F860009B
:1017D00000E03CE0FEF7F8FF04463BE04746C8F86F
:1017E0006000FEF7F1FF064605E000BFFEF7ECFFE4
:1017F000801B02282BD828688001F7D4D4E9070180
:101800000843A16A2E4A490802EB0141626A41EA93
:101810008211084394F82C1040EA0161C9F80010C5
:1018200001203866FEF7D0FF044606E03EE000BF28
:10183000FEF7CAFF001B022809D828688001F7D5E7
:1018400034E000BFFEF7C0FF001B022802D90320CE
:10185000BDE8F88F28688001F4D427E00128F7D08C
:10186000D9F80000E26900F4800191421CD1226A9B
:1018700000F03F01914217D147F6C071626A014002
:10188000B1EB821F10D1A26A4FF0FF3300F4403158
:1018900003EB5202B1EB024F06D194F82C1000F08A
:1018A0007060B0EB016F01D00120D1E70020CFE7DD
:1018B0000438024000004742800E4742007000405A
:1018C0000000FFFF10B5401EB0F1807F01D3012062
:1018D00010BD4FF0E02460610F21601702F031FA73
:1018E0000020A06107202061002010BD70477047D4
:1018F000F8B5016804460868CA684B6910F00F0F14
:101900004FF0000559D003F0010602F490773743F9
:1019100065D0C10705D0D10503D5216C41F0010187
:101920002164410705D5D90703D0216C41F002019C
:101930002164810705D5D90703D0216C41F004014A
:101940002164010707D502F02001314303D0216C47
:1019500041F008012164216C00293AD0800604D5A9
:10196000900602D5204600F04AFB20684069216CB1
:10197000C0F38010090700D460B3204600F018FBC4
:1019800020684069400621D52068143050E8001FC7
:1019900021F0400140E80012002AF5D1A06BA8B167
:1019A0006C490165A06BFEF7F5FD002811D0A06B16
:1019B000016D01B0BDE8F040084783060FD59306DE
:1019C0000DD52046BDE8F84000F019BB2046FFF7D2
:1019D0008EFFF8BD2046FFF78AFF2564F8BD266B11
:1019E0002023012E79D1C60677D5D60675D508688D
:1019F000486800904869400640D5A16B0868406877
:101A00000004000CEAD0A28D8242E7D9E085C869C3
:101A1000B0F5807F2DD020680C3050E8001F21F4F5
:101A2000807140E80012002AF5D12068143050E897
:101A3000001F21F0010140E80012002AF5D12068C2
:101A4000143050E8001F21F0400140E80012002A45
:101A5000F5D184F83E30256320680C3050E8001F33
:101A600021F0100140E80012002AF5D1A06BFEF72A
:101A700048FDA08DE18D401A81B229E0A08DE18D55
:101A8000401A81B2E08D0028A8D00029A6D0206895
:101A90000C3050E8002F22F4907240E80026002E0F
:101AA000F5D12068143050E8002F22F0010240E800
:101AB0000026002EF5D184F83E30256320680C30D6
:101AC00050E8002F22F0100240E80023002BF5D14F
:101AD0002046FFF70BFFF8BDFFE705062BD51506DF
:101AE00029D594F83D002128F5D1A068B0F5805F94
:101AF00001D12069B0B1206A411C216221680078BF
:101B00004860E08C401E0004000CE084E3D12068B3
:101B1000C16821F08001C1602068C16841F04001C6
:101B2000C160D8E7206A0088C0F308004860206AD6
:101B3000801C2062E5E74006CDD55006CBD5CA68AB
:101B4000204622F04002CA6084F83D3000F073F86D
:101B5000C1E70000A11F000870B5040004D094F88C
:101B60003D00002510B106E0012070BD84F83C5016
:101B7000204600F023F8242084F83D002068C16846
:101B800021F40051C160204600F09AFA20680169F2
:101B900021F4904101612068416921F02A014161ED
:101BA0002068C16841F40051C1602564202084F898
:101BB0003D0084F83E00002070BD000010B586B0E6
:101BC000044614216846FEF700FC17492068884245
:101BD00028D116480021026842F4003202600068F1
:101BE00000F40030059011481038026842F00102FC
:101BF0000260006800F0010005900C2000900220B7
:101C0000CDE90101032003900720049069460848AC
:101C1000FEF7E4FC002211462620FEF743FE2620B4
:101C2000FEF732FE06B010BD0044004040380240CE
:101C30000000024070477047FEE70000F0B5002347
:101C40000A24302537261F4611E000BFB4EB107F71
:101C500002D905EB107C01E006EB107C01F813C003
:101C600001EB430C00015B1C8CF80170DBB293426A
:101C7000ECD3F0BD30B587B014216846FEF7A5FB64
:101C800015480024016841F080010160016801F0FD
:101C900080010591016841F004010160016801F0D3
:101CA00004010591016841F00101016000680B4DDC
:101CB00000F001000590002201212846FEF77EFD7C
:101CC00001210091CDE90114694628460394FEF7ED
:101CD00085FC07B030BD00003038024000080240EB
:101CE0000C4810B50A4901604FF4E1314160002110
:101CF00081600C22C160C0E904128161C161FFF7FB
:101D00002BFF002803D0BDE81040FEF7F8BB10BD44
:101D1000004400404401002010B500220F49104843
:101D200000F049FE08B1FEF7EAFB0E490C4801F04D
:101D300057F808B1FEF7E3FB0B49094800F014FC23
:101D400008B1FEF7DCFB064801F0CEF8002803D00E
:101D5000BDE81040FEF7D3BB10BD0000100000200E
:101D600088010020CC00002060000020FEE7FEE794
:101D70000148FEF725BF0000841800202DE9F0413E
:101D800003680D4604461E6C03EB4511D1F8080BA1
:101D9000D4F810E04FF400474FF0200C04F2C44296
:101DA000BEF1010F09D0DFF898E0764539D1020481
:101DB00032D500BFC1F8087B3FE0224B5FEA007ECE
:101DC00004D59E4239D90004F4D436E05FEA806E2F
:101DD00002D5C1F808CB30E010F0280F2DD19E427B
:101DE00001D90004E6D405EBC50004EB8000D1F86E
:101DF000101BD0F89832C1F31201591AC0F89C1286
:101E000000F51F70ADB983691BB10269114401610E
:101E10000FE0012120680AE080060AD5C1F808CB4E
:101E200007E035B9D4F8940218B90021184601F03A
:101E300059FCE9B22046FEF79BFD0020BDE8F08189
:101E40000A31544F0A30544F2DE9F84F0E4601EB3A
:101E5000C60100EB810481460568616DE06D3C348C
:101E6000884202D90120BDE8F88F081AE168814252
:101E700000D20846C01C870805EB46181BE000BFCF
:101E8000A0EB010AE068504500D282460AF1030047
:101E9000870899F8100000901FFA8AF3F2B22846DA
:101EA000216901F039FF216901EB0A002061216AF3
:101EB00001EB0A002062D8F8180980B2B84205D3B5
:101EC000216AA069814201D20028D9D1216AA06982
:101ED000884208D806F00F0101208840D5F8341850
:101EE0008143C5F834180020BDE77047704701787A
:101EF000407841EA00207047FEF76CBC30B593B0E3
:101F000030216846FEF761FA14210CA8FEF75DFA4D
:101F10001D480024016841F080510160006800F014
:101F2000805011901948016841F4404101600068F7
:101F3000022500F44040119001200090000401901F
:101F40008001CDE90650082008904FF4A870099050
:101F500004200A9007200B906846FFF7FDFA08B1AD
:101F600072B6FEE70F20CDE90C054FF48050CDE9A5
:101F70000E4002210CA81094FFF7FEF9002801D0B2
:101F800072B6FEE713B030BD40380240007000402A
:101F90000248016841F470010160704788ED00E07B
:101FA00010B5806B0021C185C184FFF7A0FC10BD76
:101FB00001680C3151E8002F22F4907241E80023AF
:101FC000002BF5D10168143151E8002F22F00102F5
:101FD00041E80023002BF5D1016B012909D10168EB
:101FE0000C3151E8002F22F0100241E80023002BB1
:101FF000F5D1202180F83E1000210163704708B51B
:1020000090F83E10222901D0022008BD82684FF4CA
:1020100080539A4201D1016921B1816A9A421BD051
:102020004AB10AE00268816A5268C2F308020A8073
:10203000816A891C08E0026972B10268526802F084
:102040007F020A70816A491C8162C18D491E0904A0
:10205000090CC18503D019E002685268F1E70168F4
:10206000CA6822F02002CA600168CA6822F480723D
:10207000CA6001684A6922F001024A61202180F8A1
:102080003E10016B012903D0FFF7D4FD002008BDED
:102090000021016301680C3151E8002F22F0100289
:1020A00041E80023002BF5D101680A68D20602D569
:1020B0000A6849680091818DFFF718FCE6E7000087
:1020C00070B5044600680169E26821F4405111438B
:1020D00001612169A068E26908436169114308430D
:1020E0002168CA6849F20C639A430243CA602068B7
:1020F0004169A26921F4407111434161314920686D
:10210000884202D03049884202D1FFF7E5F901E068
:10211000FFF7D2F9E2690023192164253226B2F5CE
:10212000004F626828D0A0FB0101930F9200FEF7D8
:10213000A3F80146B0FBF5F06FF01802504301EB35
:10214000800006EB0010B0FBF5F000F0F002B1FBF0
:10215000F5F002EB0012B1FBF5F06FF018035843F5
:1021600001EB800006EB0010B0FBF5F000F00F0073
:1021700021681044886070BDA0FB010192185B418A
:10218000FEF77AF80146B0FBF5F00201B1FBF5F07D
:102190006FF01803584301EB800006EBC000B0FB62
:1021A000F5F000F0F80002EB4002B1FBF5F0584307
:1021B00001EB800006EBC000B0FBF5F000F007007B
:1021C000D6E7000000100140001401400148FFF76D
:1021D0008FBB0000440100202DE9F0410C46D0F8EF
:1021E000D412D0F8C82200EB8101D1F8C01229B373
:1021F00004F00F0606EB860300EB83050027AB69AE
:102200004BB106EBC60602EB8602926CB3FBF2F60C
:1022100002FB1632A2B1C1F81472D0F8D42200EB3E
:102220008200D0F8C40203692BB1D1F8080222461B
:1022300001F5047198470020BDE8F0810320FBE719
:1022400000231A462146AF6100F0ABFDF3E770B5FD
:102250000546D0F8D40205EB8000D0F8C04294B116
:10226000284600F080FCC4F80C02D5F8D412D4F84B
:10227000040205EB8101D1F8C412CA6804F50371A8
:102280009047002070BD032070BD000070B5224D46
:102290000446297800F0ABFB2878002600F00F00F8
:1022A00000EB800004EB800086846978204600F013
:1022B0009EFB687800F00F0000EB800004EB8000CC
:1022C000A0F86461A978204600F091FBA87800F09E
:1022D0000F0000EB800004EB80008684C684D4F8F5
:1022E000D40204EB8000D0F8C01299B1D0F8C40237
:1022F00040688047D4F8D40204EB8000D0F8C002D4
:1023000000F073FFD4F8D40204EB8000C0F8C06280
:10231000C4F8BC62002070BD7800002010B5D0F871
:10232000D41200EB8100D0F8C04284B1D0F8C412BE
:1023300059B194F80002FF2807D08B6894F8012265
:1023400021469847FF2084F80002002010BD03209A
:1023500010BD00000A210180004870477C00002069
:1023600070B5064682210C4800F0D1FA05460121DD
:10237000094800F0CCFA04468121074800F0C7FA6A
:102380000DB11021A971402104B1A18000B181805B
:1023900043203080004870BD8800002070B506469C
:1023A00082210D4800F0B3FA054601210A4800F0E9
:1023B000AEFA04468121084800F0A9FA0DB11021B7
:1023C000A9714FF4007104B1A18000B18180432054
:1023D0003080014870BD00008800002070B50646BE
:1023E00082210C4800F093FA05460121094800F0CB
:1023F0008EFA04468121074800F089FA0DB11021B8
:10240000A971402104B1A18000B1818043203080B6
:10241000004870BD880000202DE9F04704464FF4C5
:102420000775284600F0E2FE06004FF0000863D072
:102430002946FDF7CAFFD4F8D4023C4D04EB8000D6
:102440004FF01009C0F8C062C4F8BC62207C4FF4A1
:10245000007A0127F0B3402302222978204600F0B9
:10246000EFFB2878402300F00F0000EB800004EB26
:102470008000878402226978204600F0E1FB6878BA
:10248000082300F00F0000EB800004EB8000032223
:10249000A0F86471A978204601F00F0101EB8101D9
:1024A00004EB8101A1F82690A97800F0C9FBA87877
:1024B00000F00F0000EB800004EB80008784C6F87A
:1024C0000482D4F8D402474604EB8000D0F8C4025A
:1024D000006800E018E006F5017680473761776113
:1024E00032687AB1207CF8B140236978204600F048
:1024F000B3FB0020BDE8F087D4F8D41204EB8101CF
:10250000C1F8C0820220F5E753460222297820460E
:1025100000F096FB2878534600F00F0000EB800097
:1025200004EB80008784A5E75346DEE778000020AF
:1025300010B5D0F8D41200EB8101D1F8C01259B116
:10254000027C084C002AD1F8042207D0402361788D
:1025500000F082FB002010BD032010BD4FF400737B
:10256000F5E700007800002039B1D0F8D42200EB64
:102570008200C0F8C4120020704703207047D0F8D2
:10258000D42200EB8200D0F8C00218B1C0F80412C7
:102590000020704703207047D0F8D43200EB83004E
:1025A000D0F8C00228B1C0F81022C0F808120020EC
:1025B0007047032070472DE9FC410646D0F8D4024D
:1025C0000C4606EB80000021D0F8C0728DF8001098
:1025D000ADF804100D4637B1217811F060022FD00C
:1025E000202A4BD102E00320BDE8FC81E288F2B151
:1025F00009060DD5D0F8C40263783946D0F808C072
:102600001846E047E288072A00D9072239462DE01C
:10261000607887F80002E088402800D34020C2B2EA
:1026200087F801223946304600F058F82BE0D0F800
:10263000C40263780022866821461846B04722E02B
:10264000607830B101281ED00A2809D00B2815D196
:1026500010E096F89C02032810D1022201A905E09F
:1026600096F89C02032809D101226946304600F001
:102670004FF808E096F89C02032804D02146304623
:1026800000F021F803252846AEE710B5D0F8B822AF
:1026900000245268904700B10324204610BD00205A
:1026A000704700207047134610B50A46002100F01D
:1026B000D3FA002010BD134610B50A46002100F0E1
:1026C00070FB002010BD10B50446802100F04EFBC9
:1026D0002046BDE81040002100F048BB10B50323A0
:1026E000C0F89432C0F858211346C0F85C210A465D
:1026F000002100F0B1FA002010BD10B50521C0F88E
:10270000941200231A46194600F0A6FA002010BDC4
:1027100010B50223C0F8943282611346C2610A46A2
:10272000002100F03EFB002010BD10B50421C0F8D0
:10273000941200231A46194600F033FB002010BD06
:1027400010B50A46024903A000F005F9004810BD83
:102750006404002043444320436F6E6669670000B1
:1027600012200880004870473000002010B50A464B
:10277000024903A000F0EFF8004810BD64040020F7
:1027800043444320496E74657266616365000000CE
:1027900004200880004870472C00002010B50A462D
:1027A000024903A000F0D7F8004810BD64040020DF
:1027B00053544D6963726F656C656374726F6E69B3
:1027C0006373000010B50A46024903A000F0C3F885
:1027D000004810BD6404002053544D333220566924
:1027E000727475616C20436F6D506F7274000000DD
:1027F00010B51A2008800A480168001D0468001DF1
:102800000068081809D008220649FFF717FA054999
:10281000042210312046FFF711FA0248801E10BD35
:10282000107AFF1F46000020F8B504460020ADF8DE
:10283000000048880D46010A08295FD2DFE801F050
:102840005E0409175E5E3C45D4F8B412207C0A6829
:1028500019E0207C02260028D4F8B80205D0C16A0D
:10286000684688470146467039E0816AF8E7C0B299
:10287000062843D2DFE800F0030A1014181CD4F82D
:10288000B402426805E0694690471CE0D4F8B402FF
:10289000826892B3207CF6E7D4F8B402C268F8E705
:1028A000D4F8B4020269F4E7D4F8B4024269F0E75C
:1028B000D4F8B4028269ECE7207CF0B9D4F8B8020D
:1028C000416B68468847014609E0207CA8B9D4F8E6
:1028D000B802016B68468847014607204870EA88BD
:1028E0008AB1BDF8000040B1824200D90246ADF87D
:1028F00000202046FFF70CFFF8BDFFE729462046E1
:10290000FFF7E1FEF8E72046FFF70FFFF4E778B5A1
:102910000E4642880178002504468A4212D9ADF855
:1029200000100AE0694600F00FF84178052904D14B
:1029300081780546B14205D000256188BDF80020A8
:102940009142EFD8284678BD0A8803781A440A8055
:1029500001780844704770B5002300281ED0002578
:10296000044602E06D1CEDB2641C2678002EF9D1FD
:10297000022404EB450414801278CA545B1C032221
:10298000CA5400245B1C06E0CA545B1CDAB28C54A7
:10299000521CD3B2401C0278002AF5D170BD010050
:1029A0004FF0000004D0012901D0022901D00320FA
:1029B00070470120704778B10023C0F8B832C0F8E2
:1029C000C432C0F8D03209B1C0F8B412012180F885
:1029D0009C12027000F0CCB80320704710B5D0F8FC
:1029E000C802FEF708F8BDE81040FFF7D8BF10B5E1
:1029F000D0F8C802FDF7D9FFBDE81040FFF7CFBF00
:102A00002DE9F04117460446002521B194F89C02B7
:102A1000032842D04CE0D4F8941204F114000229A7
:102A200035D1D0E902639E4206D9F21A8260394656
:102A30002046FFF740FE0FE0B34214D140689842B1
:102A400011D3D4F8981288420DD2002211462046A4
:102A5000FFF731FEC4F8985200231A461946204663
:102A600000F0FAF813E094F89C02032808D1D4F897
:102A7000B802C16821B1C4F8D452C1682046884761
:102A80008021204600F072F92046FFF736FE94F8C8
:102A9000A00268B184F8A0520AE0D4F8B8024269F2
:102AA00032B1C4F8D452426920469047002800D180
:102AB0000020BDE8F08170B513460446002221B124
:102AC00094F89C02032830D03AE0D4F8941204F52C
:102AD000AA70032934D1D0E902518D420AD96A1A69
:102AE00082600846824200D3024619462046FFF71C
:102AF000DAFD25E094F8AA0210F01F0003D00128A7
:102B000002D0022800D0002294F89C02032808D1A9
:102B1000D4F8B802016921B1C4F8D4220169204671
:102B200088472046FFF701FE0AE0D4F8B80283691F
:102B300033B1C4F8D422826920469047002800D1DE
:102B4000002070BD0020704710B50024012180F8DE
:102B50009C12D0F8B82222B152680179904700B196
:102B60000324204610BDD0F8C802FDF772BF000054
:102B700010B5017839BB15490222C1F80805C0F823
:102B8000C8124FF0A0400860042048600020C1E94E
:102B90000320C1E9062008624862C862086308464B
:102BA000FEF7C6FA08B1FDF7AAFC80210748FDF739
:102BB000ACFE402200210548FDF7ABFE802201213A
:102BC0000248FDF7A6FE002010BD0000841800207A
:102BD0000A0601F07F01D0F8C80201EBC10100EB49
:102BE000810002D590F83E00704790F87E02704751
:102BF00010B5D0F8D42200EB8202D2F8B82222B16C
:102C000090F89C32032B02D004E0032010BD126A1E
:102C100002B19047002010BD10B5D0F8D42200EBCF
:102C20008202D2F8B82222B190F89C32032B02D053
:102C300004E0032010BD526A02B19047002010BD8D
:102C400010B51C461346D0F8C8022246FDF70AFF0D
:102C5000BDE81040FFF7A3BE10B5D0F8C802FDF7DD
:102C600031FFBDE81040FFF79ABE2DE9F041002684
:102C70000125044680F89C52C4F894626660C4F84A
:102C8000A46280F8A062D0F8B80230B1426822B1E4
:102C900000212046904700B1032600224023114620
:102CA0002046FFF7CDFF4027A4F864513B460022A1
:102CB00080212046C4F86071FFF7C2FFA58430462A
:102CC0002762BDE8F08190F89C12042903D190F8A6
:102CD0009D1280F89C120020704710B590F89C124D
:102CE000032905D1D0F8B81211B1C96901B18847DB
:102CF000002010BD01740020704710B5D0F8C80244
:102D0000FEF7E5FABDE81040FFF749BE70B504468E
:102D100000F2AA20054600F04DF80120C4F8940204
:102D2000B4F8B002C4F8980294F8AA0210F01F0197
:102D30000AD001290ED0022912D000F080012046CD
:102D4000BDE8704000F012B829462046BDE870404A
:102D500000F0CCB829462046BDE8704000F00CBA1F
:102D600029462046BDE8704000F056B910B5D0F8AD
:102D7000C802FDF7CBFEBDE81040FFF710BE10B54E
:102D8000D0F8C802FEF7BEFABDE81040FFF707BE54
:102D900090F89C1280F89D12042180F89C1200206B
:102DA000704710B5D0F8C802FDF7EAFEBDE8104044
:102DB000FFF7F5BD70B5054611F8010B28700878CE
:102DC00068704C1C2046FFF792F86880A41C2046CF
:102DD000FFF78DF8A880A01CFFF789F8E88070BD88
:102DE00038B504460020ADF80000A1B1C4F8B8120F
:102DF000D4F8D40204EB8000D0F8B802C16A19B14B
:102E000068468847C4F8D002D4F8D802401CC4F8F9
:102E1000D802002038BD032038BD02460020D2F879
:102E2000B832002B02D01B681046184770470000CC
:102E30002DE9F04188462B4E8978002504463170F3
:102E4000012906D941462046FFF73DFC0320BDE895
:102E5000F08194F89C02022702280CD003281DD090
:102E600041462046FFF72FFC31782046FFF70DFC46
:102E700003252846EBE789B320466160FFF7CDFFC5
:102E8000050004D041462046FFF71DFC1DE020460A
:102E9000FFF74BFC032084F89C02EAE7C1B16068AD
:102EA00088421BD0C1B22046FFF7EFFB31782046A5
:102EB0006160FFF7B2FF050010D041462046FFF7E2
:102EC00002FC21792046FFF7E0FB84F89C72D0E7F2
:102ED00084F89C7220466160FFF7D7FB2046FFF71D
:102EE00024FCC6E774000020FFF749BF2DE9F0413C
:102EF0000A78002512F060020CD0202A01D0402A66
:102F00007DD1D0F8D42200EB8202D2F8B8229268A8
:102F1000904731E04B78002201260A2B6FD2DFE880
:102F200003F041666E586E08056E2D29FFF77CFC94
:102F300067E004468888D8B9C888C8B94888802816
:102F400016D200F07F0794F89C02032810D084F872
:102F50009E7239462046FFF7D0FE2046FFF7E5FB7C
:102F60001FB1022084F89C024BE084F89C6248E088
:102F7000204644E0FFF75CFF054642E0CB88012B8A
:102F80003DD190F89C32012B04D0022B02D0032BB0
:102F900035D104E08260012200F1080116E001222F
:102FA000011D13E090F89C22012A03D0022A01D0CF
:102FB000032A24D1CA88022A21D1C660D0F8A412DB
:102FC00009B10321C160022200F10C01FFF7A0FB4F
:102FD00017E04A88012A02D0022A03D00FE0C0F885
:102FE000A46216E08988090A80F8A01211E090F81E
:102FF0009C32012B08D0022B06D0032B04D0FFF704
:1030000062FB2846BDE8F08149880129F9D1C0F862
:10301000A422FFF78AFBF4E72DE9F0410546087882
:103020000C790E464FF0000810F060000BD02028FD
:1030300001D040286AD121462846FFF730FBFF28FF
:1030400000D0D8B395E07078C8B3012824D0032805
:103050005CD195F89C02022802D0032856D10CE0DE
:10306000002C53D0802C51D021462846FFF77EFEFD
:1030700080212846FFF77AFE7BE0708840B93CB19A
:10308000802C05D0C88818B921462846FFF76EFE67
:103090002846FFF74AFB6CE095F89C020228DFD037
:1030A000032863D1708880BB600603D02146284680
:1030B000FFF794FC2846FFF738FBBCE700E00AE086
:1030C000C5F8D402D5F8B8028268F2B13146284674
:1030D000904780464DE095F89C020027022802D0D8
:1030E000032843D113E00CB1802C3FD1200604F01B
:1030F0007F0000EB800005EB800101D5143101E079
:1031000001F5AA7102220F602CE032E02EE02006C9
:1031100004F00F0000EB800005EB800009D5808CE7
:1031200020B304F07F0000EB800005EB800614362E
:103130000AE0B0F86401C8B104F07F0000EB800041
:1031400005EB800606F5AA764CB1802C07D0214607
:103150002846FFF73DFD10B10120306000E03760E8
:10316000022231462846FFF7D3FA02E02846FFF74D
:10317000AAFA4046BDE8F08170B5054608780024FB
:103180000E4610F0600003D0202801D0402827D13F
:1031900095F89C02012803D0022801D003281FD1F2
:1031A000B088C1B201291AD8C1B22846FFF779FA0E
:1031B000FF280CD058B9D5F8B8128A683AB1C5F8CA
:1031C000D4028A68314628469047044600E003242A
:1031D000F088204307D12846FFF7A7FA03E03146DD
:1031E0002846FFF770FA204670BD704700487047C8
:1031F0006416002070B50A78012302F00F054E789E
:10320000AB401B4CD0F81C58012E17D045EA0343A5
:10321000C0F81C3800EB4210D0F8002B12040BD47D
:10322000D0F8002B8B890979C3F30A031A4344EAC7
:1032300081410A43C0F8002B002070BD9BB21D43A2
:10324000C0F81C5800EB4210D0F800391B04F3D42E
:10325000D0F800398D890979C5F30A0589042B4313
:1032600041EA82510B432343C0F80039E4E70000F0
:1032700000800010D0F800196FF30A01C0F800199F
:10328000D0F8041841F48071C0F804180020704789
:1032900070B5044606990A9E049D0D98012916D022
:1032A000E06840F04000E060204600F02BF8A16BA1
:1032B0001EB321F48031A163012D07D1A16841F033
:1032C0000601A160A16841F02001A16070BDA16B61
:1032D00021F48031A163E168094A1140E160E168AD
:1032E00021F44011E160012803D1E06840F480102E
:1032F000E060204600F006F8DEE741F48031DAE7CE
:10330000BFFFBDFF08B500220D490092009B5B1C6A
:1033100000938B420CD80369002BF7DA0092026904
:1033200042F001020261009A521C00928A4201D9C5
:10333000032008BD0269D207F5D1002008BD0000B6
:10334000400D030030B54C780A78012300EB42129F
:10335000012C2CD0D2F8004B002C0BDAD2F8004B09
:1033600044F00064C2F8004BD2F8004B44F08044B3
:10337000C2F8004BD0F83C580C7804F00F0403FA64
:1033800004F425EA0444C0F83C48D0F81C48097805
:1033900001F00F018B4024EA0341C0F81C18D2F859
:1033A000000B19490840C2F8000B002030BDD2F8CC
:1033B0000049002C0BDAD2F8004944F00064C2F84E
:1033C0000049D2F8004944F08044C2F80049D0F8DE
:1033D0003C480D7805F00F0503FA05F5ADB2AC4396
:1033E000C0F83C48D0F81C48097801F00F018B4028
:1033F00099B28C43C0F81C48D2F800090349084030
:10340000C2F80009D1E700000078F3EF007833EC50
:10341000D0F8001E21F00301C0F8001ED0F80418F7
:1034200021F00201C0F8041800207047D0F8001EF7
:1034300021F00301C0F8001ED0F8041841F0020189
:10344000C0F80418002070472DE9F04F00250E4603
:103450000446DDF82CC0DDF824B0109F284629462C
:1034600004EB8002C2F80411401C0F28F8D3204658
:10347000C7B1806B20F40012A263A06B40F400225D
:10348000A26308468846C4F8000ED4F80018204607
:10349000C4F80018BCF1010F16D0D0F8001841F0A4
:1034A000030116E0D0F8040840F00202C4F8042832
:1034B000A06B40F40012A263A06B20F40022A26370
:1034C000A06B20F48022DBE7D0F800180BB141F0AC
:1034D0000101C0F80018102100F0EEFA00B101253A
:1034E000204600F0CBFA00B101254046C4F8108810
:1034F000C4F81488C4F81C8800214FF000694FF00C
:10350000904A4FF67F3314E004EB4112D2F800C921
:10351000BCF1000F06DA11B1C2F800A904E0C4F84A
:10352000009901E0C2F80009C2F81009C2F8083990
:10353000491C8E42E8D8002115E000BF04EB41127F
:10354000D2F800CBBCF1000F06DA11B1C2F800AB23
:1035500004E0C4F8009B01E0C2F8000BC2F8100BB5
:10356000C2F8083B491C8E42E8D8D4F8101821F460
:103570008072C4F81028A0616FF080406061BBF1D8
:10358000000F03D1A06940F01000A061A0690949B3
:103590000843A0610C9818B1A06940F00800A06130
:1035A000012F03D1A06904490843A0612846BDE862
:1035B000F08F000000383C8004000040816821F05A
:1035C000010181600020704770B50D784E78444C41
:1035D000EBB200EB4313012E21D0D3F8100B6FF3A5
:1035E0001200C3F8100BD3F8100B2040C3F8100BD7
:1035F000886908B1C8688861C868C861D3F8100BC9
:1036000040F40020C3F8100BD3F8100BCC69C4F3BE
:1036100012042043C3F8100B012A55D058E08E69DC
:10362000002ED3F8106932D06FF31206C3F8106978
:10363000D3F810692640C3F810698E69CC68A64299
:1036400000D98C61D3F8104944F40024C3F8104920
:10365000D3F810498E69C6F312063443C3F81049F3
:10366000012A22D000EB4512D2F8003943F004437E
:10367000C2F800398A6932B3D0F83428097801F0E9
:103680000F03012199400A43C0F8342826E0264060
:10369000C3F81069D3F8104944F40024C3F8104962
:1036A000D3F810496FF31204D8E7496919B100EB58
:1036B0004512C2F8141900EB4510D0F8001941F07A
:1036C0000441C0F8001909E0086908B1C3F8140BF7
:1036D000D3F8000B40F00440C3F8000B002070BD8D
:1036E000FFFF07E010B5036C134CA34203D9D0F8D9
:1036F000003B002B1EDB0023C0F8103BD0F8103B32
:1037000043F40023C0F8103BD0F8103B43F01803FB
:10371000C0F8103BD0F8103B43F0C043C0F8103B5A
:10372000012907D1C0F8142BD0F8001B41F08021EB
:10373000C0F8001B002010BD0A30544F4A780B78A7
:10374000012A00EB43100BD0D0F8002B22F400121A
:10375000C0F8002B0979032914D0022912D017E0F0
:10376000D0F8002922F40012C0F8002909790329B1
:1037700001D002290CD1D0F8001941F08051C0F8D5
:10378000001905E0D0F8001B41F08051C0F8001B83
:10379000002070470A784B78D1B200EB4110012B22
:1037A00012D0D0F8001B002906DB2AB1D0F8001B8C
:1037B00021F08041C0F8001BD0F8001B41F400113B
:1037C000C0F8001B00207047D0F80019002906DB64
:1037D0002AB1D0F8001921F08041C0F80019D0F8C2
:1037E000001941F40011C0F80019EBE7F8B50C78A6
:1037F0004F78764DE3B26FF0604600EB4313012F34
:1038000027D0D3F8104B6FF31204C3F8104BD3F842
:10381000104B2C40C3F8104B8D69002D75D0CC682F
:1038200025446D1EB5FBF4F5ADB26C43CC61D3F805
:10383000104B06EAC5452C43C3F8104BD3F8104B88
:10384000CD69C5F312052C43C3F8104B012A71D082
:10385000A4E08F691FB3D3F810796FF31207C3F890
:103860001079D3F810792F40C3F810798F69CD689B
:103870002F447F1EB7FBF5F506EAC545D3F810695E
:103880003543C3F81059D3F810598E69C6F31206A0
:103890003543C3F810590D79012D10D01BE0D3F832
:1038A00010692E40C3F81069D3F8105945F400256B
:1038B000C3F81059D3F810596FF3120509E0D3F883
:1038C000105925F0C045C3F81059D3F8105945F0E8
:1038D0000055C3F81059012A18D000EB4413D3F84F
:1038E000004944F00444C3F800490C79012C2FD05E
:1038F0008A6962B3D0F83428097801F00F030121F6
:1039000099400A43C0F834285EE036E04A691AB1AB
:1039100000EB4413C3F81429097901290FD1D0F819
:103920000818C90500EB4411D1F8002903D442F06E
:10393000005202E02EE042F08052C1F8002900EB74
:103940004410D0F8001941F00441C0F800193BE0E0
:10395000D0F80848E405D3F8004902D444F00054F4
:1039600001E044F08054C3F8004900920A8B93B2FE
:103970000A78096900F0D0F926E0D3F8104BCD6839
:10398000C5F312052C43C3F8104BD3F8104B44F485
:10399000002459E70A690AB1C3F8142B09790129EF
:1039A0000CD1D0F80808C005D3F8000B02D440F0C1
:1039B000005001E040F08050C3F8000BD3F8000B3A
:1039C00040F00440C3F8000B0020F8BDFFFF07E003
:1039D00038B50022009213464D780A7842F21074EE
:1039E00000EB4212012D19D0D2F8005B002D3CDA19
:1039F000D2F8005B45F00065C2F8005B0A7800EB86
:103A00004212D2F8005B45F08045C2F8005B009A94
:103A1000521C0092A24221D9012326E0D2F800597B
:103A2000002D22DAD2F8005945F00065C2F800599D
:103A30000A7800EB4212D2F8005945F08045C2F8EE
:103A40000059009A521C0092A242E5D80A7800EB75
:103A50004212D2F80029002AF3DB06E00A7800EBD4
:103A60004212D2F8002B002AD1DB184638BD8168FB
:103A700041F00101816000207047000008B500227C
:103A80000C490092009B5B1C00938B420AD803698F
:103A9000002BF7DA009210220261009A521C009269
:103AA0008A4201D9032008BD0269D206F5D400205C
:103AB00008BD0000400D030018B500230D4A009317
:103AC000009C641C009494420CD80469002CF7DA22
:103AD0000093202343EA811101610099491C009160
:103AE000914201D9032018BD01698906F5D400204F
:103AF00018BD0000400D0300D0F8080810F00600C3
:103B000004D0022803D0062801D00F2070470220DD
:103B10007047406900F001007047D0F81818D0F8DD
:103B20001C08084080B27047D0F81818D0F81C085C
:103B30000840000C704710B5D0F81038D0F8342881
:103B400001F00F0400EB4110E24002F00102D0F856
:103B5000080943EAC212104010BD00EB4111D1F830
:103B6000081BD0F814080840704741698069084074
:103B7000704730B503460846940802F0030100225E
:103B800003F5805303E01D6840F8045B521CA24219
:103B9000F9D300290BD01C680022D50024FA05F3C4
:103BA000491E521C090400F8013B090CF5D130BD37
:103BB00070B50446C068002520F0C040E0600129CF
:103BC00001D079B120E0E06840F00050E0600120D1
:103BD000FCF7F2FC60696D1C10F0010F10D1322D62
:103BE000F5D30DE0E06840F08040E0600120FCF794
:103BF000E3FC60696D1C10F0010F01D0322DF5D38C
:103C0000322D01D0002070BD012070BDD0F80028F9
:103C100022F4FE62C0F80028D0F800284FF4FE63BA
:103C200003EA01110A43C0F8002800207047000091
:103C3000022A3ED1264A274B0A449A4201D20F213A
:103C400038E0254A254B0A449A4201D20E2131E040
:103C5000234A244B0A449A4201D20D212AE0224AE7
:103C6000224B0A449A4201D20C2123E0204A214BE4
:103C70000A449A4201D20B211CE01F4A1F4B0A44FE
:103C80009A4201D20A2115E01D4A1E4B0A449A426B
:103C90000FD31D4A1D4B0A449A4201D2082109E064
:103CA0001B4A11441B4A914201D2072102E006211E
:103CB00000E00921C26822F47052C260C2684FF469
:103CC000705303EA81210A43C2600020704700005C
:103CD000405327FF00350C00401E1BFF40420F00E1
:103CE00000DC0BFF804F1200808CF9FE20D6130001
:103CF00060B6E5FE60E3160000D3CEFE40771B0001
:103D0000C05BB3FEC091210000CA91FE207538004F
:103D1000E05459FEE09C410010B5029C74B9DB1CD4
:103D20009C0800EB0230002300F5805004E000BF47
:103D300051F8042B02605B1CA342F9D3002010BD94
:103D4000FEE70907090E002804DB00F1E02080F8F7
:103D50000014704700F00F0000F1E02080F8141DFF
:103D60007047FCF73FFDFEF7C9F8FDF783FFFDF74D
:103D7000B7FFFDF7D1FFFEE74FF04070E1EE100A0C
:103D80007047000000000000000001020304060765
:103D9000080900000000010203040000BC3D000807
:103DA0000000002004010000D4010008C03E00080B
:103DB00004010020EC220000F001000801000000D6
:103DC00010000000000000000024F400612700083B
:103DD000912700089D270008C5270008F127000843
:103DE000412700086D27000804030904120100029E
:103DF0000202004083044057000201020301000058
:103E00001A03000000000000000000000000000095
:103E10000000000000000000000000009D040008F9
:103E20009904000895040008C1040008F90400087A
:103E300000000000810182000A060002000000402C
:103E40000100000009024300020100C03209040021
:103E500000010202010005240010010524010001F7
:103E6000042402020524060001070582030800104D
:103E700009040100020A00000007050102400000D9
:103E80000705810240000000192400088D22000867
:103E9000B7250008000000001D230008D9210008F4
:103EA0004F22000800000000000000000000000099
:103EB0009D23000861230008DD2300085523000826
:040000050800019955
:00000001FF
